{"abi":[{"type":"constructor","inputs":[{"name":"tokenAddresses","type":"address[]","internalType":"address[]"},{"name":"priceFeedAddresses","type":"address[]","internalType":"address[]"},{"name":"dscAddress","type":"address","internalType":"address"}],"stateMutability":"nonpayable"},{"type":"function","name":"burnDSC","inputs":[{"name":"amount","type":"uint256","internalType":"uint256"}],"outputs":[],"stateMutability":"nonpayable"},{"type":"function","name":"calculateHealthFactor","inputs":[{"name":"totalDscMinted","type":"uint256","internalType":"uint256"},{"name":"collateralValueInUsd","type":"uint256","internalType":"uint256"}],"outputs":[{"name":"","type":"uint256","internalType":"uint256"}],"stateMutability":"pure"},{"type":"function","name":"depositCollateral","inputs":[{"name":"tokenCollateralAddress","type":"address","internalType":"address"},{"name":"amountCollateral","type":"uint256","internalType":"uint256"}],"outputs":[],"stateMutability":"nonpayable"},{"type":"function","name":"depositCollateralAndMintDSC","inputs":[{"name":"tokenCollateralAddress","type":"address","internalType":"address"},{"name":"amountCollateral","type":"uint256","internalType":"uint256"},{"name":"amountDSCToMint","type":"uint256","internalType":"uint256"}],"outputs":[],"stateMutability":"nonpayable"},{"type":"function","name":"getAccountCollateralValueInUSD","inputs":[{"name":"user","type":"address","internalType":"address"}],"outputs":[{"name":"totalCollateralValueInUSD","type":"uint256","internalType":"uint256"}],"stateMutability":"view"},{"type":"function","name":"getAccountInformation","inputs":[{"name":"user","type":"address","internalType":"address"}],"outputs":[{"name":"totalDSCMinted","type":"uint256","internalType":"uint256"},{"name":"collateralValueInUSD","type":"uint256","internalType":"uint256"}],"stateMutability":"view"},{"type":"function","name":"getAdditionalFeedPrecision","inputs":[],"outputs":[{"name":"precision","type":"uint256","internalType":"uint256"}],"stateMutability":"pure"},{"type":"function","name":"getCollateralBalanceOfUser","inputs":[{"name":"user","type":"address","internalType":"address"},{"name":"token","type":"address","internalType":"address"}],"outputs":[{"name":"collateralBalance","type":"uint256","internalType":"uint256"}],"stateMutability":"view"},{"type":"function","name":"getCollateralTokenPriceFeed","inputs":[{"name":"tokenCollateral","type":"address","internalType":"address"}],"outputs":[{"name":"priceFeed","type":"address","internalType":"address"}],"stateMutability":"view"},{"type":"function","name":"getCollateralTokens","inputs":[],"outputs":[{"name":"collateralTokens","type":"address[]","internalType":"address[]"}],"stateMutability":"view"},{"type":"function","name":"getHealthFactor","inputs":[],"outputs":[],"stateMutability":"nonpayable"},{"type":"function","name":"getHealthFactor","inputs":[{"name":"user","type":"address","internalType":"address"}],"outputs":[{"name":"healtFactor","type":"uint256","internalType":"uint256"}],"stateMutability":"view"},{"type":"function","name":"getLiquidationBonus","inputs":[],"outputs":[{"name":"_LIQUIDATION_BONUS","type":"uint256","internalType":"uint256"}],"stateMutability":"pure"},{"type":"function","name":"getLiquidationThreshold","inputs":[],"outputs":[{"name":"liqThreshold","type":"uint256","internalType":"uint256"}],"stateMutability":"pure"},{"type":"function","name":"getMinHealthFactor","inputs":[],"outputs":[{"name":"healthFactor","type":"uint256","internalType":"uint256"}],"stateMutability":"pure"},{"type":"function","name":"getPrecision","inputs":[],"outputs":[{"name":"precision","type":"uint256","internalType":"uint256"}],"stateMutability":"pure"},{"type":"function","name":"getTokenCollateralAmountFromUSD","inputs":[{"name":"tokenCollateral","type":"address","internalType":"address"},{"name":"usdInWei","type":"uint256","internalType":"uint256"}],"outputs":[{"name":"","type":"uint256","internalType":"uint256"}],"stateMutability":"view"},{"type":"function","name":"getUSDValue","inputs":[{"name":"token","type":"address","internalType":"address"},{"name":"amount","type":"uint256","internalType":"uint256"}],"outputs":[{"name":"","type":"uint256","internalType":"uint256"}],"stateMutability":"view"},{"type":"function","name":"liquidate","inputs":[{"name":"tokenCollateral","type":"address","internalType":"address"},{"name":"user","type":"address","internalType":"address"},{"name":"debtToCover","type":"uint256","internalType":"uint256"}],"outputs":[],"stateMutability":"nonpayable"},{"type":"function","name":"mintDSC","inputs":[{"name":"amountDSCToMint","type":"uint256","internalType":"uint256"}],"outputs":[],"stateMutability":"nonpayable"},{"type":"function","name":"redeemCollateral","inputs":[{"name":"tokenCollateralAddress","type":"address","internalType":"address"},{"name":"amountCollateral","type":"uint256","internalType":"uint256"}],"outputs":[],"stateMutability":"nonpayable"},{"type":"function","name":"redeemCollateralForDSC","inputs":[{"name":"tokenCollateralAddress","type":"address","internalType":"address"},{"name":"amountCollateral","type":"uint256","internalType":"uint256"},{"name":"amountDSCToBeBurned","type":"uint256","internalType":"uint256"}],"outputs":[],"stateMutability":"nonpayable"},{"type":"event","name":"CollateralDeposited","inputs":[{"name":"user","type":"address","indexed":true,"internalType":"address"},{"name":"token","type":"address","indexed":true,"internalType":"address"},{"name":"amount","type":"uint256","indexed":true,"internalType":"uint256"}],"anonymous":false},{"type":"event","name":"CollateralRedeemed","inputs":[{"name":"redeemedFrom","type":"address","indexed":true,"internalType":"address"},{"name":"redeemedTo","type":"address","indexed":true,"internalType":"address"},{"name":"token","type":"address","indexed":true,"internalType":"address"},{"name":"tokenAmount","type":"uint256","indexed":false,"internalType":"uint256"}],"anonymous":false},{"type":"error","name":"DSCEngine__BreaksHealthFactor","inputs":[]},{"type":"error","name":"DSCEngine__HealthFactorNotEligbleForLiquidation","inputs":[]},{"type":"error","name":"DSCEngine__HealthFactorNotImproved","inputs":[]},{"type":"error","name":"DSCEngine__MintFailed","inputs":[]},{"type":"error","name":"DSCEngine__NeedsMoreThanZero","inputs":[]},{"type":"error","name":"DSCEngine__TokenAddressesAndPriceFeedsMustBeSameLength","inputs":[]},{"type":"error","name":"DSCEngine__TokenNotAllowed","inputs":[]},{"type":"error","name":"DSCEngine__TransferFailed","inputs":[]}],"bytecode":{"object":"0x60a060405234801561000f575f5ffd5b5060405161130338038061130383398101604081905261002e91610217565b60015f5581518351146100545760405163803366e160e01b815260040160405180910390fd5b5f5b8351811015610130578281815181106100715761007161028b565b602002602001015160015f86848151811061008e5761008e61028b565b60200260200101516001600160a01b03166001600160a01b031681526020019081526020015f205f6101000a8154816001600160a01b0302191690836001600160a01b0316021790555060048482815181106100ec576100ec61028b565b6020908102919091018101518254600180820185555f9485529290932090920180546001600160a01b0319166001600160a01b039093169290921790915501610056565b506001600160a01b03166080525061029f9050565b634e487b7160e01b5f52604160045260245ffd5b80516001600160a01b038116811461016f575f5ffd5b919050565b5f82601f830112610183575f5ffd5b81516001600160401b0381111561019c5761019c610145565b604051600582901b90603f8201601f191681016001600160401b03811182821017156101ca576101ca610145565b6040529182526020818501810192908101868411156101e7575f5ffd5b6020860192505b8383101561020d576101ff83610159565b8152602092830192016101ee565b5095945050505050565b5f5f5f60608486031215610229575f5ffd5b83516001600160401b0381111561023e575f5ffd5b61024a86828701610174565b602086015190945090506001600160401b03811115610267575f5ffd5b61027386828701610174565b92505061028260408501610159565b90509250925092565b634e487b7160e01b5f52603260045260245ffd5b60805161103e6102c55f395f818161086b01528181610a760152610b18015261103e5ff3fe608060405234801561000f575f5ffd5b506004361061013d575f3560e01c80637be564fc116100b4578063a5d5db0c11610079578063a5d5db0c146102b8578063a5f352b71461017a578063b58eb63f146102cb578063d0bb6c6e146102e0578063fa76dcf2146102f3578063fe6bcd7c14610306575f5ffd5b80637be564fc146102645780638c1ae6c81461028c5780638f63d6671461029a5780639670c0bc1461028c5780639acd81b3146102a5575f5ffd5b806331e92b831161010557806331e92b83146101e55780634ae9b8bc1461021d5780634c1697b11461022457806359aa9e72146102375780636615e89c1461023e5780637334011314610251575f5ffd5b806301f72884146101415780630ebf956d146101675780631c08adda1461017c5780632575a367146101bf57806326c01303146101d2575b5f5ffd5b61015461014f366004610d7e565b610319565b6040519081526020015b60405180910390f35b61017a610175366004610db9565b61032d565b005b6101a761018a366004610de9565b6001600160a01b039081165f908152600160205260409020541690565b6040516001600160a01b03909116815260200161015e565b61017a6101cd366004610db9565b610347565b61017a6101e0366004610e02565b61035a565b6101546101f3366004610e3c565b6001600160a01b039182165f90815260026020908152604080832093909416825291909152205490565b6032610154565b61017a610232366004610e6d565b61044b565b600a610154565b61015461024c366004610de9565b610484565b61015461025f366004610e84565b6104fe565b610277610272366004610de9565b6105cb565b6040805192835260208301919091520161015e565b670de0b6b3a7640000610154565b6402540be400610154565b61017a6102b3366004610e84565b6105e0565b61017a6102c6366004610e84565b610627565b6102d3610797565b60405161015e9190610eac565b61017a6102ee366004610e6d565b6107f7565b610154610301366004610e84565b610907565b610154610314366004610de9565b6109c3565b5f61032483836109cd565b90505b92915050565b610338813333610a1c565b61034283836105e0565b505050565b6103518383610627565b610342816107f7565b805f811161037b5760405163cb1d3f7d60e01b815260040160405180910390fd5b610383610b7d565b5f61038d84610bd8565b9050670de0b6b3a764000081106103b7576040516350e7b0e960e01b815260040160405180910390fd5b5f6103c286856104fe565b90505f60646103d2600a84610f0b565b6103dc9190610f22565b90505f6103e98284610f41565b90506103f788828933610bf2565b610402868833610a1c565b5f61040c88610bd8565b905084811161042e576040516303e141b160e51b815260040160405180910390fd5b61043733610d20565b505050505061044560015f55565b50505050565b805f811161046c5760405163cb1d3f7d60e01b815260040160405180910390fd5b610477823333610a1c565b61048033610d20565b5050565b5f805b6004548110156104f8575f600482815481106104a5576104a5610f54565b5f9182526020808320909101546001600160a01b038781168452600283526040808520919092168085529252909120549091506104e28282610907565b6104ec9085610f41565b93505050600101610487565b50919050565b6001600160a01b038281165f908152600160205260408082205490516315d0e4b560e11b81529216600483018190529091829073__$1f06ac8d622ce42796cee98ba1044ce165$__90632ba1c96a9060240160a060405180830381865af415801561056b573d5f5f3e3d5ffd5b505050506040513d601f19601f8201168201806040525081019061058f9190610f81565b5050509150506402540be400816105a69190610f0b565b6105b8670de0b6b3a764000086610f0b565b6105c29190610f22565b95945050505050565b5f5f6105d683610d55565b9094909350915050565b805f81116106015760405163cb1d3f7d60e01b815260040160405180910390fd5b610609610b7d565b61061583833333610bf2565b61061e33610d20565b61034260015f55565b805f81116106485760405163cb1d3f7d60e01b815260040160405180910390fd5b6001600160a01b038084165f90815260016020526040902054849116610681576040516303a1667160e01b815260040160405180910390fd5b610689610b7d565b335f9081526002602090815260408083206001600160a01b0388168452909152812080548592906106bb908490610f41565b909155505060405183906001600160a01b0386169033907ff1c0dd7e9b98bbff859029005ef89b127af049cd18df1a8d79f0b7e019911e56905f90a46040516323b872dd60e01b8152336004820152306024820152604481018490525f906001600160a01b038616906323b872dd906064016020604051808303815f875af1158015610749573d5f5f3e3d5ffd5b505050506040513d601f19601f8201168201806040525081019061076d9190610fcf565b90508061078d57604051634dc34d1760e01b815260040160405180910390fd5b5061044560015f55565b606060048054806020026020016040519081016040528092919081815260200182805480156107ed57602002820191905f5260205f20905b81546001600160a01b031681526001909101906020018083116107cf575b5050505050905090565b805f81116108185760405163cb1d3f7d60e01b815260040160405180910390fd5b610820610b7d565b335f908152600360205260408120805484929061083e908490610f41565b9091555061084d905033610d20565b6040516340c10f1960e01b8152336004820152602481018390525f907f00000000000000000000000000000000000000000000000000000000000000006001600160a01b0316906340c10f19906044016020604051808303815f875af11580156108b9573d5f5f3e3d5ffd5b505050506040513d601f19601f820116820180604052508101906108dd9190610fcf565b9050806108fd576040516330eb0fc960e01b815260040160405180910390fd5b5061048060015f55565b6001600160a01b038281165f908152600160205260408082205490516315d0e4b560e11b81529216600483018190529091829073__$1f06ac8d622ce42796cee98ba1044ce165$__90632ba1c96a9060240160a060405180830381865af4158015610974573d5f5f3e3d5ffd5b505050506040513d601f19601f820116820180604052508101906109989190610f81565b505050915050670de0b6b3a7640000846402540be400836109b99190610f0b565b6105b89190610f0b565b5f61032782610bd8565b5f825f036109dd57505f19610327565b5f60646109eb603285610f0b565b6109f59190610f22565b905083610a0a670de0b6b3a764000083610f0b565b610a149190610f22565b949350505050565b6001600160a01b0382165f9081526003602052604081208054859290610a43908490610ff5565b90915550506040516323b872dd60e01b81526001600160a01b038281166004830152306024830152604482018590525f917f0000000000000000000000000000000000000000000000000000000000000000909116906323b872dd906064016020604051808303815f875af1158015610abe573d5f5f3e3d5ffd5b505050506040513d601f19601f82011682018060405250810190610ae29190610fcf565b905080610b0257604051634dc34d1760e01b815260040160405180910390fd5b604051630852cd8d60e31b8152600481018590527f00000000000000000000000000000000000000000000000000000000000000006001600160a01b0316906342966c68906024015f604051808303815f87803b158015610b61575f5ffd5b505af1158015610b73573d5f5f3e3d5ffd5b5050505050505050565b60025f5403610bd25760405162461bcd60e51b815260206004820152601f60248201527f5265656e7472616e637947756172643a207265656e7472616e742063616c6c00604482015260640160405180910390fd5b60025f55565b5f5f5f610be484610d55565b91509150610a1482826109cd565b6001600160a01b038083165f90815260026020908152604080832093881683529290529081208054859290610c28908490610ff5565b92505081905550836001600160a01b0316816001600160a01b0316836001600160a01b03167fb292db12b8dfa23b760ee5e3bd1d3be184cd8f0eeeacd27ce120d4de4e4721f686604051610c7e91815260200190565b60405180910390a460405163a9059cbb60e01b81526001600160a01b038281166004830152602482018590525f919086169063a9059cbb906044016020604051808303815f875af1158015610cd5573d5f5f3e3d5ffd5b505050506040513d601f19601f82011682018060405250810190610cf99190610fcf565b905080610d1957604051634dc34d1760e01b815260040160405180910390fd5b5050505050565b5f610d2a82610bd8565b9050670de0b6b3a76400008110156104805760405163360e1b3360e11b815260040160405180910390fd5b6001600160a01b0381165f9081526003602052604081205490610d7783610484565b9050915091565b5f5f60408385031215610d8f575f5ffd5b50508035926020909101359150565b80356001600160a01b0381168114610db4575f5ffd5b919050565b5f5f5f60608486031215610dcb575f5ffd5b610dd484610d9e565b95602085013595506040909401359392505050565b5f60208284031215610df9575f5ffd5b61032482610d9e565b5f5f5f60608486031215610e14575f5ffd5b610e1d84610d9e565b9250610e2b60208501610d9e565b929592945050506040919091013590565b5f5f60408385031215610e4d575f5ffd5b610e5683610d9e565b9150610e6460208401610d9e565b90509250929050565b5f60208284031215610e7d575f5ffd5b5035919050565b5f5f60408385031215610e95575f5ffd5b610e9e83610d9e565b946020939093013593505050565b602080825282518282018190525f918401906040840190835b81811015610eec5783516001600160a01b0316835260209384019390920191600101610ec5565b509095945050505050565b634e487b7160e01b5f52601160045260245ffd5b808202811582820484141761032757610327610ef7565b5f82610f3c57634e487b7160e01b5f52601260045260245ffd5b500490565b8082018082111561032757610327610ef7565b634e487b7160e01b5f52603260045260245ffd5b805169ffffffffffffffffffff81168114610db4575f5ffd5b5f5f5f5f5f60a08688031215610f95575f5ffd5b610f9e86610f68565b60208701516040880151606089015192975090955093509150610fc360808701610f68565b90509295509295909350565b5f60208284031215610fdf575f5ffd5b81518015158114610fee575f5ffd5b9392505050565b8181038181111561032757610327610ef756fea26469706673582212200bfa78887bc2d6ba57fdcc677b45b6bfcd7043a1f72f937582017cdb9e59db0864736f6c634300081c0033","linkReferences":{"src/libraries/OracleLib.sol":{"OracleLib":[{"start":2040,"length":20},{"start":3073,"length":20}]}}},"methodIdentifiers":{"burnDSC(uint256)":"4c1697b1","calculateHealthFactor(uint256,uint256)":"01f72884","depositCollateral(address,uint256)":"a5d5db0c","depositCollateralAndMintDSC(address,uint256,uint256)":"2575a367","getAccountCollateralValueInUSD(address)":"6615e89c","getAccountInformation(address)":"7be564fc","getAdditionalFeedPrecision()":"8f63d667","getCollateralBalanceOfUser(address,address)":"31e92b83","getCollateralTokenPriceFeed(address)":"1c08adda","getCollateralTokens()":"b58eb63f","getHealthFactor()":"a5f352b7","getHealthFactor(address)":"fe6bcd7c","getLiquidationBonus()":"59aa9e72","getLiquidationThreshold()":"4ae9b8bc","getMinHealthFactor()":"8c1ae6c8","getPrecision()":"9670c0bc","getTokenCollateralAmountFromUSD(address,uint256)":"73340113","getUSDValue(address,uint256)":"fa76dcf2","liquidate(address,address,uint256)":"26c01303","mintDSC(uint256)":"d0bb6c6e","redeemCollateral(address,uint256)":"9acd81b3","redeemCollateralForDSC(address,uint256,uint256)":"0ebf956d"},"id":35}