{"abi":[{"type":"function","name":"TIMEOUT","inputs":[],"outputs":[{"name":"","type":"uint256","internalType":"uint256"}],"stateMutability":"view"},{"type":"function","name":"staleCheckLatestRoundData","inputs":[{"name":"priceFeed","type":"AggregatorV3Interface","internalType":"contract AggregatorV3Interface"}],"outputs":[{"name":"","type":"uint80","internalType":"uint80"},{"name":"","type":"int256","internalType":"int256"},{"name":"","type":"uint256","internalType":"uint256"},{"name":"","type":"uint256","internalType":"uint256"},{"name":"","type":"uint80","internalType":"uint80"}],"stateMutability":"view"},{"type":"error","name":"OracleLib__StalePrice","inputs":[]}],"bytecode":{"object":"0x610256610034600b8282823980515f1a607314602857634e487b7160e01b5f525f60045260245ffd5b305f52607381538281f3fe730000000000000000000000000000000000000000301460806040526004361061003f575f3560e01c80632ba1c96a14610043578063f56f48f214610092575b5f5ffd5b610056610051366004610162565b6100a9565b6040805169ffffffffffffffffffff968716815260208101959095528401929092526060830152909116608082015260a0015b60405180910390f35b61009b612a3081565b604051908152602001610089565b5f5f5f5f5f5f5f5f5f5f8a6001600160a01b031663feaf968c6040518163ffffffff1660e01b815260040160a060405180830381865afa1580156100ef573d5f5f3e3d5ffd5b505050506040513d601f19601f8201168201806040525081019061011391906101ad565b945094509450945094505f824261012a91906101fb565b9050612a3081111561014f57604051636250849d60e11b815260040160405180910390fd5b50939a9299509097509550909350915050565b5f60208284031215610172575f5ffd5b81356001600160a01b0381168114610188575f5ffd5b9392505050565b805169ffffffffffffffffffff811681146101a8575f5ffd5b919050565b5f5f5f5f5f60a086880312156101c1575f5ffd5b6101ca8661018f565b602087015160408801516060890151929750909550935091506101ef6080870161018f565b90509295509295909350565b8181038181111561021a57634e487b7160e01b5f52601160045260245ffd5b9291505056fea2646970667358221220ebfd89a91e7fb456dba5cad3383b2024d7e8ca13ef3f191c871755b16ed38c9564736f6c634300081c0033","linkReferences":{}},"methodIdentifiers":{"TIMEOUT()":"f56f48f2","staleCheckLatestRoundData(AggregatorV3Interface)":"2ba1c96a"},"id":37}